{
  "contractName": "TodoList",
  "abi": [
    {
      "constant": true,
      "inputs": [
        {
          "name": "",
          "type": "uint256"
        }
      ],
      "name": "taskIds",
      "outputs": [
        {
          "name": "",
          "type": "uint256"
        }
      ],
      "payable": false,
      "stateMutability": "view",
      "type": "function"
    },
    {
      "constant": true,
      "inputs": [
        {
          "name": "",
          "type": "uint256"
        }
      ],
      "name": "tasks",
      "outputs": [
        {
          "name": "id",
          "type": "uint256"
        },
        {
          "name": "userAddress",
          "type": "address"
        },
        {
          "name": "content",
          "type": "string"
        },
        {
          "name": "completed",
          "type": "bool"
        }
      ],
      "payable": false,
      "stateMutability": "view",
      "type": "function"
    },
    {
      "constant": true,
      "inputs": [],
      "name": "taskCount",
      "outputs": [
        {
          "name": "",
          "type": "uint256"
        }
      ],
      "payable": false,
      "stateMutability": "view",
      "type": "function"
    },
    {
      "inputs": [],
      "payable": false,
      "stateMutability": "nonpayable",
      "type": "constructor"
    },
    {
      "anonymous": false,
      "inputs": [
        {
          "indexed": false,
          "name": "id",
          "type": "uint256"
        },
        {
          "indexed": false,
          "name": "content",
          "type": "string"
        },
        {
          "indexed": false,
          "name": "completed",
          "type": "bool"
        }
      ],
      "name": "TaskCreated",
      "type": "event"
    },
    {
      "anonymous": false,
      "inputs": [
        {
          "indexed": false,
          "name": "id",
          "type": "uint256"
        },
        {
          "indexed": false,
          "name": "completed",
          "type": "bool"
        }
      ],
      "name": "TaskCompleted",
      "type": "event"
    },
    {
      "constant": false,
      "inputs": [
        {
          "name": "_content",
          "type": "string"
        }
      ],
      "name": "createTask",
      "outputs": [],
      "payable": false,
      "stateMutability": "nonpayable",
      "type": "function"
    },
    {
      "constant": true,
      "inputs": [],
      "name": "getTaskIds",
      "outputs": [
        {
          "name": "",
          "type": "uint256[]"
        }
      ],
      "payable": false,
      "stateMutability": "view",
      "type": "function"
    },
    {
      "constant": true,
      "inputs": [
        {
          "name": "id",
          "type": "uint256"
        }
      ],
      "name": "getTask",
      "outputs": [
        {
          "components": [
            {
              "name": "id",
              "type": "uint256"
            },
            {
              "name": "userAddress",
              "type": "address"
            },
            {
              "name": "content",
              "type": "string"
            },
            {
              "name": "completed",
              "type": "bool"
            }
          ],
          "name": "",
          "type": "tuple"
        }
      ],
      "payable": false,
      "stateMutability": "view",
      "type": "function"
    },
    {
      "constant": false,
      "inputs": [
        {
          "name": "_id",
          "type": "uint256"
        }
      ],
      "name": "toggleCompleted",
      "outputs": [],
      "payable": false,
      "stateMutability": "nonpayable",
      "type": "function"
    },
    {
      "constant": false,
      "inputs": [
        {
          "name": "id",
          "type": "uint256"
        }
      ],
      "name": "deleteTask",
      "outputs": [],
      "payable": false,
      "stateMutability": "nonpayable",
      "type": "function"
    }
  ],
  "bytecode": "0x6080604052600080553480156200001557600080fd5b50620000656040805190810160405280601c81526020017f436865636b206f75742064617070756e69766572736974792e636f6d000000008152506200006b640100000000026401000000009004565b620003a0565b600080815480929190600101919050555060806040519081016040528060005481526020013373ffffffffffffffffffffffffffffffffffffffff1681526020018281526020016000151581525060026000805481526020019081526020016000206000820151816000015560208201518160010160006101000a81548173ffffffffffffffffffffffffffffffffffffffff021916908373ffffffffffffffffffffffffffffffffffffffff16021790555060408201518160020190805190602001906200013c929190620001d1565b5060608201518160030160006101000a81548160ff021916908315150217905550905050600160005490806001815401808255809150509060018203906000526020600020016000909192909190915055507f05d0fb833127fc08168556d0e7ca9554fc3f6bc843b3b7d2bf1c35aea6bab660600054826000604051620001c693929190620002e3565b60405180910390a150565b828054600181600116156101000203166002900490600052602060002090601f016020900481019282601f106200021457805160ff191683800117855562000245565b8280016001018555821562000245579182015b828111156200024457825182559160200191906001019062000227565b5b50905062000254919062000258565b5090565b6200027d91905b80821115620002795760008160009055506001016200025f565b5090565b90565b6200028b8162000343565b82525050565b60006200029e8262000327565b620002aa818562000332565b9350620002bc81856020860162000359565b620002c7816200038f565b840191505092915050565b620002dd816200034f565b82525050565b6000606082019050620002fa6000830186620002d2565b81810360208301526200030e818562000291565b90506200031f604083018462000280565b949350505050565b600081519050919050565b600082825260208201905092915050565b60008115159050919050565b6000819050919050565b60005b83811015620003795780820151818401526020810190506200035c565b8381111562000389576000848401525b50505050565b6000601f19601f8301169050919050565b6110a980620003b06000396000f3fe608060405234801561001057600080fd5b50600436106100a5576000357c010000000000000000000000000000000000000000000000000000000090048063560f319211610078578063560f3192146101425780638d9776721461015e578063b6cb58a514610191578063bcd14805146101af576100a5565b8063111002aa146100aa5780631d65e77e146100c657806339118d25146100f6578063455f502414610126575b600080fd5b6100c460048036036100bf9190810190610b4d565b6101cd565b005b6100e060048036036100db9190810190610b8e565b61032f565b6040516100ed9190610e13565b60405180910390f35b610110600480360361010b9190810190610b8e565b6104d6565b60405161011d9190610e35565b60405180910390f35b610140600480360361013b9190810190610b8e565b6104f9565b005b61015c60048036036101579190810190610b8e565b61073a565b005b61017860048036036101739190810190610b8e565b610862565b6040516101889493929190610e50565b60405180910390f35b610199610957565b6040516101a69190610e35565b60405180910390f35b6101b761095d565b6040516101c49190610dd1565b60405180910390f35b600080815480929190600101919050555060806040519081016040528060005481526020013373ffffffffffffffffffffffffffffffffffffffff1681526020018281526020016000151581525060026000805481526020019081526020016000206000820151816000015560208201518160010160006101000a81548173ffffffffffffffffffffffffffffffffffffffff021916908373ffffffffffffffffffffffffffffffffffffffff160217905550604082015181600201908051906020019061029c9291906109b5565b5060608201518160030160006101000a81548160ff021916908315150217905550905050600160005490806001815401808255809150509060018203906000526020600020016000909192909190915055507f05d0fb833127fc08168556d0e7ca9554fc3f6bc843b3b7d2bf1c35aea6bab66060005482600060405161032493929190610ec5565b60405180910390a150565b610337610a35565b81600060026000838152602001908152602001600020600001541415610392576040517f08c379a000000000000000000000000000000000000000000000000000000000815260040161038990610df3565b60405180910390fd5b6002600084815260200190815260200160002060806040519081016040529081600082015481526020016001820160009054906101000a900473ffffffffffffffffffffffffffffffffffffffff1673ffffffffffffffffffffffffffffffffffffffff1673ffffffffffffffffffffffffffffffffffffffff168152602001600282018054600181600116156101000203166002900480601f0160208091040260200160405190810160405280929190818152602001828054600181600116156101000203166002900480156104aa5780601f1061047f576101008083540402835291602001916104aa565b820191906000526020600020905b81548152906001019060200180831161048d57829003601f168201915b505050505081526020016003820160009054906101000a900460ff161515151581525050915050919050565b6001818154811015156104e557fe5b906000526020600020016000915090505481565b610501610a35565b6002600083815260200190815260200160002060806040519081016040529081600082015481526020016001820160009054906101000a900473ffffffffffffffffffffffffffffffffffffffff1673ffffffffffffffffffffffffffffffffffffffff1673ffffffffffffffffffffffffffffffffffffffff168152602001600282018054600181600116156101000203166002900480601f0160208091040260200160405190810160405280929190818152602001828054600181600116156101000203166002900480156106195780601f106105ee57610100808354040283529160200191610619565b820191906000526020600020905b8154815290600101906020018083116105fc57829003601f168201915b505050505081526020016003820160009054906101000a900460ff161515151581525050905080606001511581606001901515908115158152505080600260008481526020019081526020016000206000820151816000015560208201518160010160006101000a81548173ffffffffffffffffffffffffffffffffffffffff021916908373ffffffffffffffffffffffffffffffffffffffff16021790555060408201518160020190805190602001906106d59291906109b5565b5060608201518160030160006101000a81548160ff0219169083151502179055509050507fe21fa966ca5cd02748c0752352d18c48165e61cb55b4c29cccf924b5a95fcff182826060015160405161072e929190610e9c565b60405180910390a15050565b80600060026000838152602001908152602001600020600001541415610795576040517f08c379a000000000000000000000000000000000000000000000000000000000815260040161078c90610df3565b60405180910390fd5b600260008381526020019081526020016000206000808201600090556001820160006101000a81549073ffffffffffffffffffffffffffffffffffffffff02191690556002820160006107e89190610a76565b6003820160006101000a81549060ff0219169055505060008090505b60018054905081101561085d578260018281548110151561082157fe5b906000526020600020015414156108505760018181548110151561084157fe5b90600052602060002001600090555b8080600101915050610804565b505050565b60026020528060005260406000206000915090508060000154908060010160009054906101000a900473ffffffffffffffffffffffffffffffffffffffff1690806002018054600181600116156101000203166002900480601f01602080910402602001604051908101604052809291908181526020018280546001816001161561010002031660029004801561093a5780601f1061090f5761010080835404028352916020019161093a565b820191906000526020600020905b81548152906001019060200180831161091d57829003601f168201915b5050505050908060030160009054906101000a900460ff16905084565b60005481565b606060018054806020026020016040519081016040528092919081815260200182805480156109ab57602002820191906000526020600020905b815481526020019060010190808311610997575b5050505050905090565b828054600181600116156101000203166002900490600052602060002090601f016020900481019282601f106109f657805160ff1916838001178555610a24565b82800160010185558215610a24579182015b82811115610a23578251825591602001919060010190610a08565b5b509050610a319190610abe565b5090565b60806040519081016040528060008152602001600073ffffffffffffffffffffffffffffffffffffffff168152602001606081526020016000151581525090565b50805460018160011615610100020316600290046000825580601f10610a9c5750610abb565b601f016020900490600052602060002090810190610aba9190610abe565b5b50565b610ae091905b80821115610adc576000816000905550600101610ac4565b5090565b90565b600082601f8301121515610af657600080fd5b8135610b09610b0482610f30565b610f03565b91508082526020830160208301858383011115610b2557600080fd5b610b3083828461101c565b50505092915050565b6000610b458235611012565b905092915050565b600060208284031215610b5f57600080fd5b600082013567ffffffffffffffff811115610b7957600080fd5b610b8584828501610ae3565b91505092915050565b600060208284031215610ba057600080fd5b6000610bae84828501610b39565b91505092915050565b6000610bc38383610db3565b60208301905092915050565b610bd881610fca565b82525050565b610be781610fca565b82525050565b6000610bf882610f69565b610c028185610f97565b9350610c0d83610f5c565b60005b82811015610c3b57610c23868351610bb7565b9550610c2e82610f8a565b9150600181019050610c10565b50849250505092915050565b610c5081610fdc565b82525050565b610c5f81610fdc565b82525050565b6000610c7082610f7f565b610c7a8185610fb9565b9350610c8a81856020860161102b565b610c938161105e565b840191505092915050565b6000610ca982610f74565b610cb38185610fa8565b9350610cc381856020860161102b565b610ccc8161105e565b840191505092915050565b6000610ce282610f74565b610cec8185610fb9565b9350610cfc81856020860161102b565b610d058161105e565b840191505092915050565b6000610d1d601683610fb9565b91507f5265766572743a207461736b206e6f7420666f756e64000000000000000000006000830152602082019050919050565b6000608083016000830151610d686000860182610db3565b506020830151610d7b6020860182610bcf565b5060408301518482036040860152610d938282610c9e565b9150506060830151610da86060860182610c47565b508091505092915050565b610dbc81611008565b82525050565b610dcb81611008565b82525050565b60006020820190508181036000830152610deb8184610bed565b905092915050565b60006020820190508181036000830152610e0c81610d10565b9050919050565b60006020820190508181036000830152610e2d8184610d50565b905092915050565b6000602082019050610e4a6000830184610dc2565b92915050565b6000608082019050610e656000830187610dc2565b610e726020830186610bde565b8181036040830152610e848185610cd7565b9050610e936060830184610c56565b95945050505050565b6000604082019050610eb16000830185610dc2565b610ebe6020830184610c56565b9392505050565b6000606082019050610eda6000830186610dc2565b8181036020830152610eec8185610c65565b9050610efb6040830184610c56565b949350505050565b6000604051905081810181811067ffffffffffffffff82111715610f2657600080fd5b8060405250919050565b600067ffffffffffffffff821115610f4757600080fd5b601f19601f8301169050602081019050919050565b6000602082019050919050565b600081519050919050565b600081519050919050565b600081519050919050565b6000602082019050919050565b600082825260208201905092915050565b600082825260208201905092915050565b600082825260208201905092915050565b6000610fd582610fe8565b9050919050565b60008115159050919050565b600073ffffffffffffffffffffffffffffffffffffffff82169050919050565b6000819050919050565b6000819050919050565b82818337600083830152505050565b60005b8381101561104957808201518184015260208101905061102e565b83811115611058576000848401525b50505050565b6000601f19601f830116905091905056fea265627a7a72305820c9ae6f09ad2b20a77a194f85664e66841cb351cd5e83fcb0e5a446e654b85b7d6c6578706572696d656e74616cf50037",
  "source": "// SPDX-License-Identifier: MIT\npragma solidity >=0.4.22 <0.9.0;\npragma experimental ABIEncoderV2;\n\ncontract TodoList {\n  uint public taskCount = 0;\n  uint256[] public taskIds;\n\n  struct Task {\n    uint id;\n    address userAddress;\n    string content;\n    bool completed;\n  }\n\n  mapping(uint => Task) public tasks;\n\n  event TaskCreated(\n    uint id,\n    string content,\n    bool completed\n  );\n\n  event TaskCompleted(\n    uint id,\n    bool completed\n  );\n\n  constructor() public {\n    createTask(\"Check out dappuniversity.com\");\n  }\n\n  function createTask(string memory _content) public {\n    taskCount ++;\n    tasks[taskCount] = Task(taskCount, msg.sender, _content, false);\n    taskIds.push(taskCount);\n    emit TaskCreated(taskCount, _content, false);\n  }\n\n  function getTaskIds() public view returns (uint256[] memory) {\n    return taskIds;\n  }\n\n  function getTask(uint256 id)\n    public\n    view\n    taskExists(id)\n    returns ( Task memory )\n  {\n    return tasks[id];\n  }\n\n  function toggleCompleted(uint _id) public {\n    Task memory _task = tasks[_id];\n    _task.completed = !_task.completed;\n    tasks[_id] = _task;\n    emit TaskCompleted(_id, _task.completed);\n  }\n\n  function deleteTask(uint id) public taskExists(id) {\n    delete tasks[id];\n\n    for (uint256 i = 0; i < taskIds.length; i++) {\n      if (taskIds[i] == id) {\n        // this update the element to 0\n        delete taskIds[i];\n      }\n    }\n  }\n\n  // errorが出る\n  // function getAllTasks() public view returns (Task[] memory) {\n  //   Task[] memory result;\n  //   for (uint i = 0; i < taskIds.length; i++) {\n  //     if (taskIds[i] != 0) {\n  //       result[i] = tasks[i];\n  //     }\n  //   }\n  //   return result;\n  // }\n\n  modifier taskExists(uint256 id) {\n    if (tasks[id].id == 0) {\n      revert(\"Revert: task not found\");\n    }\n    _;\n  }\n}",
  "sourcePath": "/Users/tomoki.sugihara/gaiax/dapp-todo/contracts/TodoList.sol",
  "compiler": {
    "name": "solc",
    "version": "0.5.4+commit.9549d8ff.Emscripten.clang"
  },
  "schemaVersion": "3.4.1",
  "updatedAt": "2021-06-21T23:19:59.696Z",
  "networkType": "ethereum",
  "devdoc": {
    "methods": {}
  },
  "userdoc": {
    "methods": {}
  }
}