{
  "contractName": "TodoList",
  "abi": [
    {
      "inputs": [],
      "payable": false,
      "stateMutability": "nonpayable",
      "type": "constructor"
    },
    {
      "anonymous": false,
      "inputs": [
        {
          "indexed": false,
          "internalType": "uint256",
          "name": "id",
          "type": "uint256"
        },
        {
          "indexed": false,
          "internalType": "bool",
          "name": "completed",
          "type": "bool"
        }
      ],
      "name": "TaskCompleted",
      "type": "event"
    },
    {
      "anonymous": false,
      "inputs": [
        {
          "indexed": false,
          "internalType": "uint256",
          "name": "id",
          "type": "uint256"
        },
        {
          "indexed": false,
          "internalType": "string",
          "name": "content",
          "type": "string"
        },
        {
          "indexed": false,
          "internalType": "bool",
          "name": "completed",
          "type": "bool"
        }
      ],
      "name": "TaskCreated",
      "type": "event"
    },
    {
      "constant": true,
      "inputs": [],
      "name": "taskCount",
      "outputs": [
        {
          "internalType": "uint256",
          "name": "",
          "type": "uint256"
        }
      ],
      "payable": false,
      "stateMutability": "view",
      "type": "function"
    },
    {
      "constant": true,
      "inputs": [
        {
          "internalType": "uint256",
          "name": "",
          "type": "uint256"
        }
      ],
      "name": "taskIds",
      "outputs": [
        {
          "internalType": "uint256",
          "name": "",
          "type": "uint256"
        }
      ],
      "payable": false,
      "stateMutability": "view",
      "type": "function"
    },
    {
      "constant": true,
      "inputs": [
        {
          "internalType": "uint256",
          "name": "",
          "type": "uint256"
        }
      ],
      "name": "tasks",
      "outputs": [
        {
          "internalType": "uint256",
          "name": "id",
          "type": "uint256"
        },
        {
          "internalType": "string",
          "name": "content",
          "type": "string"
        },
        {
          "internalType": "bool",
          "name": "completed",
          "type": "bool"
        }
      ],
      "payable": false,
      "stateMutability": "view",
      "type": "function"
    },
    {
      "constant": false,
      "inputs": [
        {
          "internalType": "string",
          "name": "_content",
          "type": "string"
        }
      ],
      "name": "createTask",
      "outputs": [],
      "payable": false,
      "stateMutability": "nonpayable",
      "type": "function"
    },
    {
      "constant": true,
      "inputs": [],
      "name": "getTaskIds",
      "outputs": [
        {
          "internalType": "uint256[]",
          "name": "",
          "type": "uint256[]"
        }
      ],
      "payable": false,
      "stateMutability": "view",
      "type": "function"
    },
    {
      "constant": true,
      "inputs": [
        {
          "internalType": "uint256",
          "name": "id",
          "type": "uint256"
        }
      ],
      "name": "getTask",
      "outputs": [
        {
          "internalType": "uint256",
          "name": "",
          "type": "uint256"
        },
        {
          "internalType": "string",
          "name": "",
          "type": "string"
        },
        {
          "internalType": "bool",
          "name": "",
          "type": "bool"
        }
      ],
      "payable": false,
      "stateMutability": "view",
      "type": "function"
    },
    {
      "constant": false,
      "inputs": [
        {
          "internalType": "uint256",
          "name": "_id",
          "type": "uint256"
        }
      ],
      "name": "toggleCompleted",
      "outputs": [],
      "payable": false,
      "stateMutability": "nonpayable",
      "type": "function"
    },
    {
      "constant": false,
      "inputs": [
        {
          "internalType": "uint256",
          "name": "id",
          "type": "uint256"
        }
      ],
      "name": "deleteTask",
      "outputs": [],
      "payable": false,
      "stateMutability": "nonpayable",
      "type": "function"
    }
  ],
  "bytecode": "0x60806040526000805534801561001457600080fd5b506100596040518060400160405280601c81526020017f436865636b206f75742064617070756e69766572736974792e636f6d0000000081525061005e60201b60201c565b610276565b6000808154809291906001019190505550604051806060016040528060005481526020018281526020016000151581525060026000805481526020019081526020016000206000820151816000015560208201518160010190805190602001906100c99291906101d1565b5060408201518160020160006101000a81548160ff021916908315150217905550905050600160005490806001815401808255809150509060018203906000526020600020016000909192909190915055507f05d0fb833127fc08168556d0e7ca9554fc3f6bc843b3b7d2bf1c35aea6bab660600054826000604051808481526020018060200183151515158152602001828103825284818151815260200191508051906020019080838360005b83811015610192578082015181840152602081019050610177565b50505050905090810190601f1680156101bf5780820380516001836020036101000a031916815260200191505b5094505050505060405180910390a150565b828054600181600116156101000203166002900490600052602060002090601f016020900481019282601f1061021257805160ff1916838001178555610240565b82800160010185558215610240579182015b8281111561023f578251825591602001919060010190610224565b5b50905061024d9190610251565b5090565b61027391905b8082111561026f576000816000905550600101610257565b5090565b90565b610c47806102856000396000f3fe608060405234801561001057600080fd5b50600436106100885760003560e01c8063560f31921161005b578063560f3192146102715780638d9776721461029f578063b6cb58a514610358578063bcd148051461037657610088565b8063111002aa1461008d5780631d65e77e1461014857806339118d2514610201578063455f502414610243575b600080fd5b610146600480360360208110156100a357600080fd5b81019080803590602001906401000000008111156100c057600080fd5b8201836020820111156100d257600080fd5b803590602001918460018302840111640100000000831117156100f457600080fd5b91908080601f016020809104026020016040519081016040528093929190818152602001838380828437600081840152601f19601f8201169050808301925050505050505091929192905050506103d5565b005b6101746004803603602081101561015e57600080fd5b8101908080359060200190929190505050610548565b604051808481526020018060200183151515158152602001828103825284818151815260200191508051906020019080838360005b838110156101c45780820151818401526020810190506101a9565b50505050905090810190601f1680156101f15780820380516001836020036101000a031916815260200191505b5094505050505060405180910390f35b61022d6004803603602081101561021757600080fd5b81019080803590602001909291905050506106d7565b6040518082815260200191505060405180910390f35b61026f6004803603602081101561025957600080fd5b81019080803590602001909291905050506106f8565b005b61029d6004803603602081101561028757600080fd5b81019080803590602001909291905050506108a5565b005b6102cb600480360360208110156102b557600080fd5b81019080803590602001909291905050506109d5565b604051808481526020018060200183151515158152602001828103825284818151815260200191508051906020019080838360005b8381101561031b578082015181840152602081019050610300565b50505050905090810190601f1680156103485780820380516001836020036101000a031916815260200191505b5094505050505060405180910390f35b610360610aa4565b6040518082815260200191505060405180910390f35b61037e610aaa565b6040518080602001828103825283818151815260200191508051906020019060200280838360005b838110156103c15780820151818401526020810190506103a6565b505050509050019250505060405180910390f35b600080815480929190600101919050555060405180606001604052806000548152602001828152602001600015158152506002600080548152602001908152602001600020600082015181600001556020820151816001019080519060200190610440929190610b02565b5060408201518160020160006101000a81548160ff021916908315150217905550905050600160005490806001815401808255809150509060018203906000526020600020016000909192909190915055507f05d0fb833127fc08168556d0e7ca9554fc3f6bc843b3b7d2bf1c35aea6bab660600054826000604051808481526020018060200183151515158152602001828103825284818151815260200191508051906020019080838360005b838110156105095780820151818401526020810190506104ee565b50505050905090810190601f1680156105365780820380516001836020036101000a031916815260200191505b5094505050505060405180910390a150565b600060606000836000600260008381526020019081526020016000206000015414156105dc576040517f08c379a00000000000000000000000000000000000000000000000000000000081526004018080602001828103825260168152602001807f5265766572743a207461736b206e6f7420666f756e640000000000000000000081525060200191505060405180910390fd5b6002600086815260200190815260200160002060000154600260008781526020019081526020016000206001016002600088815260200190815260200160002060020160009054906101000a900460ff16818054600181600116156101000203166002900480601f0160208091040260200160405190810160405280929190818152602001828054600181600116156101000203166002900480156106c25780601f10610697576101008083540402835291602001916106c2565b820191906000526020600020905b8154815290600101906020018083116106a557829003601f168201915b50505050509150935093509350509193909250565b600181815481106106e457fe5b906000526020600020016000915090505481565b610700610b82565b6002600083815260200190815260200160002060405180606001604052908160008201548152602001600182018054600181600116156101000203166002900480601f0160208091040260200160405190810160405280929190818152602001828054600181600116156101000203166002900480156107c15780601f10610796576101008083540402835291602001916107c1565b820191906000526020600020905b8154815290600101906020018083116107a457829003601f168201915b505050505081526020016002820160009054906101000a900460ff16151515158152505090508060400151158160400190151590811515815250508060026000848152602001908152602001600020600082015181600001556020820151816001019080519060200190610836929190610b02565b5060408201518160020160006101000a81548160ff0219169083151502179055509050507fe21fa966ca5cd02748c0752352d18c48165e61cb55b4c29cccf924b5a95fcff182826040015160405180838152602001821515151581526020019250505060405180910390a15050565b80600060026000838152602001908152602001600020600001541415610933576040517f08c379a00000000000000000000000000000000000000000000000000000000081526004018080602001828103825260168152602001807f5265766572743a207461736b206e6f7420666f756e640000000000000000000081525060200191505060405180910390fd5b6002600083815260200190815260200160002060008082016000905560018201600061095f9190610ba5565b6002820160006101000a81549060ff0219169055505060008090505b6001805490508110156109d057826001828154811061099657fe5b906000526020600020015414156109c357600181815481106109b457fe5b90600052602060002001600090555b808060010191505061097b565b505050565b6002602052806000526040600020600091509050806000015490806001018054600181600116156101000203166002900480601f016020809104026020016040519081016040528092919081815260200182805460018160011615610100020316600290048015610a875780601f10610a5c57610100808354040283529160200191610a87565b820191906000526020600020905b815481529060010190602001808311610a6a57829003601f168201915b5050505050908060020160009054906101000a900460ff16905083565b60005481565b60606001805480602002602001604051908101604052809291908181526020018280548015610af857602002820191906000526020600020905b815481526020019060010190808311610ae4575b5050505050905090565b828054600181600116156101000203166002900490600052602060002090601f016020900481019282601f10610b4357805160ff1916838001178555610b71565b82800160010185558215610b71579182015b82811115610b70578251825591602001919060010190610b55565b5b509050610b7e9190610bed565b5090565b604051806060016040528060008152602001606081526020016000151581525090565b50805460018160011615610100020316600290046000825580601f10610bcb5750610bea565b601f016020900490600052602060002090810190610be99190610bed565b5b50565b610c0f91905b80821115610c0b576000816000905550600101610bf3565b5090565b9056fea265627a7a723158207e3d41b34a5375428293f6ab7d3ec0c46363ab509c2b1392504e79788613d6e664736f6c63430005100032",
  "source": "// SPDX-License-Identifier: MIT\npragma solidity >=0.4.22 <0.9.0;\n\ncontract TodoList {\n  uint public taskCount = 0;\n  uint256[] public taskIds;\n\n  struct Task {\n    uint id;\n    string content;\n    bool completed;\n  }\n\n  mapping(uint => Task) public tasks;\n\n  event TaskCreated(\n    uint id,\n    string content,\n    bool completed\n  );\n\n  event TaskCompleted(\n    uint id,\n    bool completed\n  );\n\n  constructor() public {\n    createTask(\"Check out dappuniversity.com\");\n  }\n\n  function createTask(string memory _content) public {\n    taskCount ++;\n    tasks[taskCount] = Task(taskCount, _content, false);\n    taskIds.push(taskCount);\n    emit TaskCreated(taskCount, _content, false);\n  }\n\n  function getTaskIds() public view returns (uint256[] memory) {\n    return taskIds;\n  }\n\n  function getTask(uint256 id)\n    public\n    view\n    taskExists(id)\n    returns (\n      uint,\n      string memory,\n      bool\n    )\n  {\n    return (\n      tasks[id].id,\n      tasks[id].content,\n      tasks[id].completed\n    );\n  }\n\n  function toggleCompleted(uint _id) public {\n    Task memory _task = tasks[_id];\n    _task.completed = !_task.completed;\n    tasks[_id] = _task;\n    emit TaskCompleted(_id, _task.completed);\n  }\n\n  function deleteTask(uint id) public taskExists(id) {\n    delete tasks[id];\n\n    for (uint256 i = 0; i < taskIds.length; i++) {\n      if (taskIds[i] == id) {\n        // this update the element to 0\n        delete taskIds[i];\n      }\n    }\n  }\n\n  // function getTasks() public view returns (Task[] memory) {\n  //   return tasks;\n  // }\n\n  modifier taskExists(uint256 id) {\n    if (tasks[id].id == 0) {\n      revert(\"Revert: task not found\");\n    }\n    _;\n  }\n}",
  "sourcePath": "/Users/tomoki.sugihara/gaiax/dapp-todo/contracts/TodoList.sol",
  "compiler": {
    "name": "solc",
    "version": "0.5.16+commit.9c3226ce.Emscripten.clang"
  },
  "schemaVersion": "3.4.1",
  "updatedAt": "2021-06-17T02:10:52.330Z",
  "networkType": "ethereum",
  "devdoc": {
    "methods": {}
  },
  "userdoc": {
    "methods": {}
  }
}