{
  "contractName": "TodoList",
  "abi": [
    {
      "constant": true,
      "inputs": [
        {
          "name": "",
          "type": "uint256"
        }
      ],
      "name": "taskIds",
      "outputs": [
        {
          "name": "",
          "type": "uint256"
        }
      ],
      "payable": false,
      "stateMutability": "view",
      "type": "function"
    },
    {
      "constant": true,
      "inputs": [
        {
          "name": "",
          "type": "uint256"
        }
      ],
      "name": "tasks",
      "outputs": [
        {
          "name": "id",
          "type": "uint256"
        },
        {
          "name": "userAddress",
          "type": "address"
        },
        {
          "name": "content",
          "type": "string"
        },
        {
          "name": "completed",
          "type": "bool"
        }
      ],
      "payable": false,
      "stateMutability": "view",
      "type": "function"
    },
    {
      "constant": true,
      "inputs": [],
      "name": "taskCount",
      "outputs": [
        {
          "name": "",
          "type": "uint256"
        }
      ],
      "payable": false,
      "stateMutability": "view",
      "type": "function"
    },
    {
      "inputs": [],
      "payable": false,
      "stateMutability": "nonpayable",
      "type": "constructor"
    },
    {
      "anonymous": false,
      "inputs": [
        {
          "indexed": false,
          "name": "id",
          "type": "uint256"
        },
        {
          "indexed": false,
          "name": "content",
          "type": "string"
        },
        {
          "indexed": false,
          "name": "completed",
          "type": "bool"
        }
      ],
      "name": "TaskCreated",
      "type": "event"
    },
    {
      "anonymous": false,
      "inputs": [
        {
          "indexed": false,
          "name": "id",
          "type": "uint256"
        },
        {
          "indexed": false,
          "name": "completed",
          "type": "bool"
        }
      ],
      "name": "TaskCompleted",
      "type": "event"
    },
    {
      "constant": false,
      "inputs": [
        {
          "name": "_content",
          "type": "string"
        }
      ],
      "name": "createTask",
      "outputs": [],
      "payable": false,
      "stateMutability": "nonpayable",
      "type": "function"
    },
    {
      "constant": true,
      "inputs": [],
      "name": "getTaskIds",
      "outputs": [
        {
          "name": "",
          "type": "uint256[]"
        }
      ],
      "payable": false,
      "stateMutability": "view",
      "type": "function"
    },
    {
      "constant": true,
      "inputs": [
        {
          "name": "id",
          "type": "uint256"
        }
      ],
      "name": "getTask",
      "outputs": [
        {
          "components": [
            {
              "name": "id",
              "type": "uint256"
            },
            {
              "name": "userAddress",
              "type": "address"
            },
            {
              "name": "content",
              "type": "string"
            },
            {
              "name": "completed",
              "type": "bool"
            }
          ],
          "name": "",
          "type": "tuple"
        }
      ],
      "payable": false,
      "stateMutability": "view",
      "type": "function"
    },
    {
      "constant": false,
      "inputs": [
        {
          "name": "_id",
          "type": "uint256"
        }
      ],
      "name": "toggleCompleted",
      "outputs": [],
      "payable": false,
      "stateMutability": "nonpayable",
      "type": "function"
    },
    {
      "constant": false,
      "inputs": [
        {
          "name": "id",
          "type": "uint256"
        }
      ],
      "name": "deleteTask",
      "outputs": [],
      "payable": false,
      "stateMutability": "nonpayable",
      "type": "function"
    },
    {
      "constant": true,
      "inputs": [],
      "name": "getAllTasks",
      "outputs": [
        {
          "components": [
            {
              "name": "id",
              "type": "uint256"
            },
            {
              "name": "userAddress",
              "type": "address"
            },
            {
              "name": "content",
              "type": "string"
            },
            {
              "name": "completed",
              "type": "bool"
            }
          ],
          "name": "",
          "type": "tuple[]"
        }
      ],
      "payable": false,
      "stateMutability": "view",
      "type": "function"
    }
  ],
  "bytecode": "0x6080604052600080553480156200001557600080fd5b50620000656040805190810160405280601c81526020017f436865636b206f75742064617070756e69766572736974792e636f6d000000008152506200006b640100000000026401000000009004565b620003a0565b600080815480929190600101919050555060806040519081016040528060005481526020013373ffffffffffffffffffffffffffffffffffffffff1681526020018281526020016000151581525060026000805481526020019081526020016000206000820151816000015560208201518160010160006101000a81548173ffffffffffffffffffffffffffffffffffffffff021916908373ffffffffffffffffffffffffffffffffffffffff16021790555060408201518160020190805190602001906200013c929190620001d1565b5060608201518160030160006101000a81548160ff021916908315150217905550905050600160005490806001815401808255809150509060018203906000526020600020016000909192909190915055507f05d0fb833127fc08168556d0e7ca9554fc3f6bc843b3b7d2bf1c35aea6bab660600054826000604051620001c693929190620002e3565b60405180910390a150565b828054600181600116156101000203166002900490600052602060002090601f016020900481019282601f106200021457805160ff191683800117855562000245565b8280016001018555821562000245579182015b828111156200024457825182559160200191906001019062000227565b5b50905062000254919062000258565b5090565b6200027d91905b80821115620002795760008160009055506001016200025f565b5090565b90565b6200028b8162000343565b82525050565b60006200029e8262000327565b620002aa818562000332565b9350620002bc81856020860162000359565b620002c7816200038f565b840191505092915050565b620002dd816200034f565b82525050565b6000606082019050620002fa6000830186620002d2565b81810360208301526200030e818562000291565b90506200031f604083018462000280565b949350505050565b600081519050919050565b600082825260208201905092915050565b60008115159050919050565b6000819050919050565b60005b83811015620003795780820151818401526020810190506200035c565b8381111562000389576000848401525b50505050565b6000601f19601f8301169050919050565b6113b880620003b06000396000f3fe608060405234801561001057600080fd5b50600436106100b0576000357c010000000000000000000000000000000000000000000000000000000090048063560f319211610083578063560f31921461014d578063779900b4146101695780638d97767214610187578063b6cb58a5146101ba578063bcd14805146101d8576100b0565b8063111002aa146100b55780631d65e77e146100d157806339118d2514610101578063455f502414610131575b600080fd5b6100cf60048036036100ca9190810190610d1c565b6101f6565b005b6100eb60048036036100e69190810190610d5d565b610358565b6040516100f891906110ec565b60405180910390f35b61011b60048036036101169190810190610d5d565b6104ff565b604051610128919061110e565b60405180910390f35b61014b60048036036101469190810190610d5d565b610522565b005b61016760048036036101629190810190610d5d565b610763565b005b61017161088b565b60405161017e9190611088565b60405180910390f35b6101a1600480360361019c9190810190610d5d565b610a31565b6040516101b19493929190611129565b60405180910390f35b6101c2610b26565b6040516101cf919061110e565b60405180910390f35b6101e0610b2c565b6040516101ed91906110aa565b60405180910390f35b600080815480929190600101919050555060806040519081016040528060005481526020013373ffffffffffffffffffffffffffffffffffffffff1681526020018281526020016000151581525060026000805481526020019081526020016000206000820151816000015560208201518160010160006101000a81548173ffffffffffffffffffffffffffffffffffffffff021916908373ffffffffffffffffffffffffffffffffffffffff16021790555060408201518160020190805190602001906102c5929190610b84565b5060608201518160030160006101000a81548160ff021916908315150217905550905050600160005490806001815401808255809150509060018203906000526020600020016000909192909190915055507f05d0fb833127fc08168556d0e7ca9554fc3f6bc843b3b7d2bf1c35aea6bab66060005482600060405161034d9392919061119e565b60405180910390a150565b610360610c04565b816000600260008381526020019081526020016000206000015414156103bb576040517f08c379a00000000000000000000000000000000000000000000000000000000081526004016103b2906110cc565b60405180910390fd5b6002600084815260200190815260200160002060806040519081016040529081600082015481526020016001820160009054906101000a900473ffffffffffffffffffffffffffffffffffffffff1673ffffffffffffffffffffffffffffffffffffffff1673ffffffffffffffffffffffffffffffffffffffff168152602001600282018054600181600116156101000203166002900480601f0160208091040260200160405190810160405280929190818152602001828054600181600116156101000203166002900480156104d35780601f106104a8576101008083540402835291602001916104d3565b820191906000526020600020905b8154815290600101906020018083116104b657829003601f168201915b505050505081526020016003820160009054906101000a900460ff161515151581525050915050919050565b60018181548110151561050e57fe5b906000526020600020016000915090505481565b61052a610c04565b6002600083815260200190815260200160002060806040519081016040529081600082015481526020016001820160009054906101000a900473ffffffffffffffffffffffffffffffffffffffff1673ffffffffffffffffffffffffffffffffffffffff1673ffffffffffffffffffffffffffffffffffffffff168152602001600282018054600181600116156101000203166002900480601f0160208091040260200160405190810160405280929190818152602001828054600181600116156101000203166002900480156106425780601f1061061757610100808354040283529160200191610642565b820191906000526020600020905b81548152906001019060200180831161062557829003601f168201915b505050505081526020016003820160009054906101000a900460ff161515151581525050905080606001511581606001901515908115158152505080600260008481526020019081526020016000206000820151816000015560208201518160010160006101000a81548173ffffffffffffffffffffffffffffffffffffffff021916908373ffffffffffffffffffffffffffffffffffffffff16021790555060408201518160020190805190602001906106fe929190610b84565b5060608201518160030160006101000a81548160ff0219169083151502179055509050507fe21fa966ca5cd02748c0752352d18c48165e61cb55b4c29cccf924b5a95fcff1828260600151604051610757929190611175565b60405180910390a15050565b806000600260008381526020019081526020016000206000015414156107be576040517f08c379a00000000000000000000000000000000000000000000000000000000081526004016107b5906110cc565b60405180910390fd5b600260008381526020019081526020016000206000808201600090556001820160006101000a81549073ffffffffffffffffffffffffffffffffffffffff02191690556002820160006108119190610c45565b6003820160006101000a81549060ff0219169055505060008090505b600180549050811015610886578260018281548110151561084a57fe5b906000526020600020015414156108795760018181548110151561086a57fe5b90600052602060002001600090555b808060010191505061082d565b505050565b60608060008090505b600180549050811015610a295760006001828154811015156108b257fe5b9060005260206000200154141515610a1c576002600082815260200190815260200160002060806040519081016040529081600082015481526020016001820160009054906101000a900473ffffffffffffffffffffffffffffffffffffffff1673ffffffffffffffffffffffffffffffffffffffff1673ffffffffffffffffffffffffffffffffffffffff168152602001600282018054600181600116156101000203166002900480601f0160208091040260200160405190810160405280929190818152602001828054600181600116156101000203166002900480156109dc5780601f106109b1576101008083540402835291602001916109dc565b820191906000526020600020905b8154815290600101906020018083116109bf57829003601f168201915b505050505081526020016003820160009054906101000a900460ff1615151515815250508282815181101515610a0e57fe5b906020019060200201819052505b8080600101915050610894565b508091505090565b60026020528060005260406000206000915090508060000154908060010160009054906101000a900473ffffffffffffffffffffffffffffffffffffffff1690806002018054600181600116156101000203166002900480601f016020809104026020016040519081016040528092919081815260200182805460018160011615610100020316600290048015610b095780601f10610ade57610100808354040283529160200191610b09565b820191906000526020600020905b815481529060010190602001808311610aec57829003601f168201915b5050505050908060030160009054906101000a900460ff16905084565b60005481565b60606001805480602002602001604051908101604052809291908181526020018280548015610b7a57602002820191906000526020600020905b815481526020019060010190808311610b66575b5050505050905090565b828054600181600116156101000203166002900490600052602060002090601f016020900481019282601f10610bc557805160ff1916838001178555610bf3565b82800160010185558215610bf3579182015b82811115610bf2578251825591602001919060010190610bd7565b5b509050610c009190610c8d565b5090565b60806040519081016040528060008152602001600073ffffffffffffffffffffffffffffffffffffffff168152602001606081526020016000151581525090565b50805460018160011615610100020316600290046000825580601f10610c6b5750610c8a565b601f016020900490600052602060002090810190610c899190610c8d565b5b50565b610caf91905b80821115610cab576000816000905550600101610c93565b5090565b90565b600082601f8301121515610cc557600080fd5b8135610cd8610cd382611209565b6111dc565b91508082526020830160208301858383011115610cf457600080fd5b610cff83828461132b565b50505092915050565b6000610d148235611321565b905092915050565b600060208284031215610d2e57600080fd5b600082013567ffffffffffffffff811115610d4857600080fd5b610d5484828501610cb2565b91505092915050565b600060208284031215610d6f57600080fd5b6000610d7d84828501610d08565b91505092915050565b6000610d928383611007565b905092915050565b6000610da6838361106a565b60208301905092915050565b610dbb816112d9565b82525050565b610dca816112d9565b82525050565b6000610ddb8261124f565b610de58185611295565b935083602082028501610df785611235565b60005b84811015610e30578383038852610e12838351610d86565b9250610e1d8261127b565b9150602088019750600181019050610dfa565b508196508694505050505092915050565b6000610e4c8261125a565b610e5681856112a6565b9350610e6183611242565b60005b82811015610e8f57610e77868351610d9a565b9550610e8282611288565b9150600181019050610e64565b50849250505092915050565b610ea4816112eb565b82525050565b610eb3816112eb565b82525050565b6000610ec482611270565b610ece81856112c8565b9350610ede81856020860161133a565b610ee78161136d565b840191505092915050565b6000610efd82611265565b610f0781856112b7565b9350610f1781856020860161133a565b610f208161136d565b840191505092915050565b6000610f3682611265565b610f4081856112c8565b9350610f5081856020860161133a565b610f598161136d565b840191505092915050565b6000610f716016836112c8565b91507f5265766572743a207461736b206e6f7420666f756e64000000000000000000006000830152602082019050919050565b6000608083016000830151610fbc600086018261106a565b506020830151610fcf6020860182610db2565b5060408301518482036040860152610fe78282610ef2565b9150506060830151610ffc6060860182610e9b565b508091505092915050565b600060808301600083015161101f600086018261106a565b5060208301516110326020860182610db2565b506040830151848203604086015261104a8282610ef2565b915050606083015161105f6060860182610e9b565b508091505092915050565b61107381611317565b82525050565b61108281611317565b82525050565b600060208201905081810360008301526110a28184610dd0565b905092915050565b600060208201905081810360008301526110c48184610e41565b905092915050565b600060208201905081810360008301526110e581610f64565b9050919050565b600060208201905081810360008301526111068184610fa4565b905092915050565b60006020820190506111236000830184611079565b92915050565b600060808201905061113e6000830187611079565b61114b6020830186610dc1565b818103604083015261115d8185610f2b565b905061116c6060830184610eaa565b95945050505050565b600060408201905061118a6000830185611079565b6111976020830184610eaa565b9392505050565b60006060820190506111b36000830186611079565b81810360208301526111c58185610eb9565b90506111d46040830184610eaa565b949350505050565b6000604051905081810181811067ffffffffffffffff821117156111ff57600080fd5b8060405250919050565b600067ffffffffffffffff82111561122057600080fd5b601f19601f8301169050602081019050919050565b6000602082019050919050565b6000602082019050919050565b600081519050919050565b600081519050919050565b600081519050919050565b600081519050919050565b6000602082019050919050565b6000602082019050919050565b600082825260208201905092915050565b600082825260208201905092915050565b600082825260208201905092915050565b600082825260208201905092915050565b60006112e4826112f7565b9050919050565b60008115159050919050565b600073ffffffffffffffffffffffffffffffffffffffff82169050919050565b6000819050919050565b6000819050919050565b82818337600083830152505050565b60005b8381101561135857808201518184015260208101905061133d565b83811115611367576000848401525b50505050565b6000601f19601f830116905091905056fea265627a7a72305820fd5ade66e928bb120abbe24361c49217b35680be8b149a4516e55f10098861f06c6578706572696d656e74616cf50037",
  "source": "// SPDX-License-Identifier: MIT\npragma solidity >=0.4.22 <0.9.0;\npragma experimental ABIEncoderV2;\n\ncontract TodoList {\n  uint public taskCount = 0;\n  uint256[] public taskIds;\n\n  struct Task {\n    uint id;\n    address userAddress;\n    string content;\n    bool completed;\n  }\n\n  mapping(uint => Task) public tasks;\n\n  event TaskCreated(\n    uint id,\n    string content,\n    bool completed\n  );\n\n  event TaskCompleted(\n    uint id,\n    bool completed\n  );\n\n  constructor() public {\n    createTask(\"Check out dappuniversity.com\");\n  }\n\n  function createTask(string memory _content) public {\n    taskCount ++;\n    tasks[taskCount] = Task(taskCount, msg.sender, _content, false);\n    taskIds.push(taskCount);\n    emit TaskCreated(taskCount, _content, false);\n  }\n\n  function getTaskIds() public view returns (uint256[] memory) {\n    return taskIds;\n  }\n\n  function getTask(uint256 id)\n    public\n    view\n    taskExists(id)\n    returns ( Task memory )\n  {\n    return tasks[id];\n  }\n  \n  // function getTask(uint id)\n  // // function getTask(uint256 id)\n  //   public\n  //   view\n  //   taskExists(id)\n  //   returns (\n  //     uint,\n  //     string memory,\n  //     bool\n  //   )\n  // {\n  //   return (\n  //     tasks[id].id,\n  //     tasks[id].content,\n  //     tasks[id].completed\n  //   );\n  // }\n\n  function toggleCompleted(uint _id) public {\n    Task memory _task = tasks[_id];\n    _task.completed = !_task.completed;\n    tasks[_id] = _task;\n    emit TaskCompleted(_id, _task.completed);\n  }\n\n  function deleteTask(uint id) public taskExists(id) {\n    delete tasks[id];\n\n    for (uint256 i = 0; i < taskIds.length; i++) {\n      if (taskIds[i] == id) {\n        // this update the element to 0\n        delete taskIds[i];\n      }\n    }\n  }\n\n  function getAllTasks() public view returns (Task[] memory) {\n    // Task[] memory result = new Task[](taskCount);\n    Task[] memory result;\n    for (uint i = 0; i < taskIds.length; i++) {\n      if (taskIds[i] != 0) {\n      // if (keccak256(abi.encodePacked(taskIds[i])) != keccak256(abi.encodePacked(\"0\"))) {\n        result[i] = tasks[i];\n      }\n    }\n    return result;\n  }\n\n  modifier taskExists(uint256 id) {\n    if (tasks[id].id == 0) {\n      revert(\"Revert: task not found\");\n    }\n    _;\n  }\n}",
  "sourcePath": "/Users/tomoki.sugihara/gaiax/dapp-todo/contracts/TodoList.sol",
  "compiler": {
    "name": "solc",
    "version": "0.5.4+commit.9549d8ff.Emscripten.clang"
  },
  "schemaVersion": "3.4.1",
  "updatedAt": "2021-06-21T08:36:53.607Z",
  "networkType": "ethereum",
  "devdoc": {
    "methods": {}
  },
  "userdoc": {
    "methods": {}
  }
}